{
  "_format": "hh3-artifact-1",
  "contractName": "Election",
  "sourceName": "contracts/Election.sol",
  "abi": [
    {
      "inputs": [],
      "stateMutability": "nonpayable",
      "type": "constructor"
    },
    {
      "inputs": [],
      "name": "AlreadyVoted",
      "type": "error"
    },
    {
      "inputs": [],
      "name": "ECDSAInvalidSignature",
      "type": "error"
    },
    {
      "inputs": [
        {
          "internalType": "uint256",
          "name": "length",
          "type": "uint256"
        }
      ],
      "name": "ECDSAInvalidSignatureLength",
      "type": "error"
    },
    {
      "inputs": [
        {
          "internalType": "bytes32",
          "name": "s",
          "type": "bytes32"
        }
      ],
      "name": "ECDSAInvalidSignatureS",
      "type": "error"
    },
    {
      "inputs": [],
      "name": "EmptyPartyField",
      "type": "error"
    },
    {
      "inputs": [],
      "name": "InvalidEligibilityTicket",
      "type": "error"
    },
    {
      "inputs": [],
      "name": "InvalidParty",
      "type": "error"
    },
    {
      "inputs": [],
      "name": "InvalidShortString",
      "type": "error"
    },
    {
      "inputs": [],
      "name": "InvalidState",
      "type": "error"
    },
    {
      "inputs": [],
      "name": "NoParties",
      "type": "error"
    },
    {
      "inputs": [],
      "name": "NotAdmin",
      "type": "error"
    },
    {
      "inputs": [],
      "name": "SignerAlreadySet",
      "type": "error"
    },
    {
      "inputs": [],
      "name": "SignerNotSet",
      "type": "error"
    },
    {
      "inputs": [
        {
          "internalType": "string",
          "name": "str",
          "type": "string"
        }
      ],
      "name": "StringTooLong",
      "type": "error"
    },
    {
      "inputs": [],
      "name": "ZeroAddress",
      "type": "error"
    },
    {
      "anonymous": false,
      "inputs": [
        {
          "indexed": true,
          "internalType": "address",
          "name": "signer",
          "type": "address"
        }
      ],
      "name": "AdminSignerSet",
      "type": "event"
    },
    {
      "anonymous": false,
      "inputs": [],
      "name": "EIP712DomainChanged",
      "type": "event"
    },
    {
      "anonymous": false,
      "inputs": [],
      "name": "ElectionClosed",
      "type": "event"
    },
    {
      "anonymous": false,
      "inputs": [],
      "name": "ElectionStarted",
      "type": "event"
    },
    {
      "anonymous": false,
      "inputs": [
        {
          "indexed": true,
          "internalType": "uint256",
          "name": "partyId",
          "type": "uint256"
        },
        {
          "indexed": false,
          "internalType": "string",
          "name": "name",
          "type": "string"
        },
        {
          "indexed": false,
          "internalType": "string",
          "name": "shortCode",
          "type": "string"
        }
      ],
      "name": "PartyAdded",
      "type": "event"
    },
    {
      "anonymous": false,
      "inputs": [],
      "name": "RegistrationOpened",
      "type": "event"
    },
    {
      "anonymous": false,
      "inputs": [
        {
          "indexed": true,
          "internalType": "address",
          "name": "voter",
          "type": "address"
        },
        {
          "indexed": true,
          "internalType": "uint256",
          "name": "partyId",
          "type": "uint256"
        },
        {
          "indexed": false,
          "internalType": "uint256",
          "name": "timestamp",
          "type": "uint256"
        }
      ],
      "name": "VoteCast",
      "type": "event"
    },
    {
      "inputs": [],
      "name": "ELIGIBILITY_TICKET_TYPEHASH",
      "outputs": [
        {
          "internalType": "bytes32",
          "name": "",
          "type": "bytes32"
        }
      ],
      "stateMutability": "view",
      "type": "function"
    },
    {
      "inputs": [
        {
          "internalType": "string",
          "name": "name",
          "type": "string"
        },
        {
          "internalType": "string",
          "name": "shortCode",
          "type": "string"
        }
      ],
      "name": "addParty",
      "outputs": [],
      "stateMutability": "nonpayable",
      "type": "function"
    },
    {
      "inputs": [],
      "name": "admin",
      "outputs": [
        {
          "internalType": "address",
          "name": "",
          "type": "address"
        }
      ],
      "stateMutability": "view",
      "type": "function"
    },
    {
      "inputs": [],
      "name": "adminSigner",
      "outputs": [
        {
          "internalType": "address",
          "name": "",
          "type": "address"
        }
      ],
      "stateMutability": "view",
      "type": "function"
    },
    {
      "inputs": [
        {
          "internalType": "uint256",
          "name": "partyId",
          "type": "uint256"
        },
        {
          "internalType": "bytes",
          "name": "eligibilitySignature",
          "type": "bytes"
        }
      ],
      "name": "castVote",
      "outputs": [],
      "stateMutability": "nonpayable",
      "type": "function"
    },
    {
      "inputs": [],
      "name": "closeElection",
      "outputs": [],
      "stateMutability": "nonpayable",
      "type": "function"
    },
    {
      "inputs": [],
      "name": "eip712Domain",
      "outputs": [
        {
          "internalType": "bytes1",
          "name": "fields",
          "type": "bytes1"
        },
        {
          "internalType": "string",
          "name": "name",
          "type": "string"
        },
        {
          "internalType": "string",
          "name": "version",
          "type": "string"
        },
        {
          "internalType": "uint256",
          "name": "chainId",
          "type": "uint256"
        },
        {
          "internalType": "address",
          "name": "verifyingContract",
          "type": "address"
        },
        {
          "internalType": "bytes32",
          "name": "salt",
          "type": "bytes32"
        },
        {
          "internalType": "uint256[]",
          "name": "extensions",
          "type": "uint256[]"
        }
      ],
      "stateMutability": "view",
      "type": "function"
    },
    {
      "inputs": [],
      "name": "getResults",
      "outputs": [
        {
          "components": [
            {
              "internalType": "uint256",
              "name": "id",
              "type": "uint256"
            },
            {
              "internalType": "string",
              "name": "name",
              "type": "string"
            },
            {
              "internalType": "string",
              "name": "shortCode",
              "type": "string"
            }
          ],
          "internalType": "struct Election.Party[]",
          "name": "partyList",
          "type": "tuple[]"
        },
        {
          "internalType": "uint256[]",
          "name": "counts",
          "type": "uint256[]"
        }
      ],
      "stateMutability": "view",
      "type": "function"
    },
    {
      "inputs": [
        {
          "internalType": "address",
          "name": "",
          "type": "address"
        }
      ],
      "name": "hasVoted",
      "outputs": [
        {
          "internalType": "bool",
          "name": "",
          "type": "bool"
        }
      ],
      "stateMutability": "view",
      "type": "function"
    },
    {
      "inputs": [],
      "name": "openRegistration",
      "outputs": [],
      "stateMutability": "nonpayable",
      "type": "function"
    },
    {
      "inputs": [
        {
          "internalType": "uint256",
          "name": "",
          "type": "uint256"
        }
      ],
      "name": "parties",
      "outputs": [
        {
          "internalType": "uint256",
          "name": "id",
          "type": "uint256"
        },
        {
          "internalType": "string",
          "name": "name",
          "type": "string"
        },
        {
          "internalType": "string",
          "name": "shortCode",
          "type": "string"
        }
      ],
      "stateMutability": "view",
      "type": "function"
    },
    {
      "inputs": [],
      "name": "partyCount",
      "outputs": [
        {
          "internalType": "uint256",
          "name": "",
          "type": "uint256"
        }
      ],
      "stateMutability": "view",
      "type": "function"
    },
    {
      "inputs": [
        {
          "internalType": "address",
          "name": "signer",
          "type": "address"
        }
      ],
      "name": "setAdminSigner",
      "outputs": [],
      "stateMutability": "nonpayable",
      "type": "function"
    },
    {
      "inputs": [],
      "name": "startElection",
      "outputs": [],
      "stateMutability": "nonpayable",
      "type": "function"
    },
    {
      "inputs": [],
      "name": "state",
      "outputs": [
        {
          "internalType": "enum Election.ElectionState",
          "name": "",
          "type": "uint8"
        }
      ],
      "stateMutability": "view",
      "type": "function"
    },
    {
      "inputs": [
        {
          "internalType": "uint256",
          "name": "",
          "type": "uint256"
        }
      ],
      "name": "voteCount",
      "outputs": [
        {
          "internalType": "uint256",
          "name": "",
          "type": "uint256"
        }
      ],
      "stateMutability": "view",
      "type": "function"
    }
  ],
  "bytecode": "0x610160604052348015610010575f5ffd5b5060408051808201825260098152684369766963566f746560b81b602080830191909152825180840190935260018352603160f81b9083015290610054825f61011c565b6101205261006381600161011c565b61014052815160208084019190912060e052815190820120610100524660a0526100ef60e05161010051604080517f8b73c3c69bb8fe3d512ecc4cf759cc79239f7b179b0ffacaa9a75d522b39400f60208201529081019290925260608201524660808201523060a08201525f9060c00160405160208183030381529060405280519060200120905090565b60805250503060c052600280546001600160a01b031916331790556003805460ff60a01b1916905561033e565b5f602083511015610137576101308361014e565b9050610148565b81610142848261022c565b5060ff90505b92915050565b5f5f829050601f81511115610181578260405163305a27a960e01b815260040161017891906102e6565b60405180910390fd5b805161018c8261031b565b179392505050565b634e487b7160e01b5f52604160045260245ffd5b600181811c908216806101bc57607f821691505b6020821081036101da57634e487b7160e01b5f52602260045260245ffd5b50919050565b601f82111561022757805f5260205f20601f840160051c810160208510156102055750805b601f840160051c820191505b81811015610224575f8155600101610211565b50505b505050565b81516001600160401b0381111561024557610245610194565b6102598161025384546101a8565b846101e0565b6020601f82116001811461028b575f83156102745750848201515b5f19600385901b1c1916600184901b178455610224565b5f84815260208120601f198516915b828110156102ba578785015182556020948501946001909201910161029a565b50848210156102d757868401515f19600387901b60f8161c191681555b50505050600190811b01905550565b602081525f82518060208401528060208501604085015e5f604082850101526040601f19601f83011684010191505092915050565b805160208083015191908110156101da575f1960209190910360031b1b16919050565b60805160a05160c05160e0516101005161012051610140516117aa61038f5f395f610e0201525f610dd101525f61100701525f610fdf01525f610f3a01525f610f6401525f610f8e01526117aa5ff3fe608060405234801561000f575f5ffd5b50600436106100fb575f3560e01c80639eb8e72511610093578063d06e4ee711610063578063d06e4ee71461022a578063f66fcc2f14610232578063f851a44014610259578063ff9d2dcc14610284575f5ffd5b80639eb8e725146101db578063a8da7f25146101e3578063c0015bf0146101f6578063c19d93fb14610209575f5ffd5b806362d73eb8116100ce57806362d73eb81461018e5780636c6c32d01461019657806370651a181461019e57806384b0196e146101c0575f5ffd5b806309eef43e146100ff578063183bbe80146101365780634717f97c1461014b5780634fc8a20d14610161575b5f5ffd5b61012161010d36600461128b565b60056020525f908152604090205460ff1681565b60405190151581526020015b60405180910390f35b61014961014436600461128b565b610297565b005b6101536103c2565b60405161012d929190611320565b61018061016f3660046113c7565b60066020525f908152604090205481565b60405190815260200161012d565b6101496105cf565b6101496106eb565b6101b16101ac3660046113c7565b610791565b60405161012d939291906113de565b6101c86108d1565b60405161012d9796959493929190611412565b600454610180565b6101496101f13660046114c6565b610913565b61014961020436600461150e565b610aea565b60035461021d90600160a01b900460ff1681565b60405161012d919061158e565b610149610d25565b6101807f3dafe58bf2a527d776b249a4a23b69d187ff0257a8f9b5faa56036340b83a31081565b60025461026c906001600160a01b031681565b6040516001600160a01b03909116815260200161012d565b60035461026c906001600160a01b031681565b6002546001600160a01b031633146102c257604051637bfa4b9f60e01b815260040160405180910390fd5b6001600160a01b0381166102e95760405163d92e233d60e01b815260040160405180910390fd5b6003546001600160a01b0316156103135760405163b7c51b6560e01b815260040160405180910390fd5b600260038054600160a01b900460ff16908111156103335761033361157a565b148061035b57506003808054600160a01b900460ff16908111156103595761035961157a565b145b156103795760405163baf3f0f760e01b815260040160405180910390fd5b600380546001600160a01b0319166001600160a01b0383169081179091556040517f6e662100bc9a4e2ffab4b4639247f615b8cf40050952e6a1ce4ec7696d882b61905f90a250565b600480546040805160208084028201810190925282815260609384939283905f9084015b8282101561053f578382905f5260205f2090600302016040518060600160405290815f8201548152602001600182018054610420906115b4565b80601f016020809104026020016040519081016040528092919081815260200182805461044c906115b4565b80156104975780601f1061046e57610100808354040283529160200191610497565b820191905f5260205f20905b81548152906001019060200180831161047a57829003601f168201915b505050505081526020016002820180546104b0906115b4565b80601f01602080910402602001604051908101604052809291908181526020018280546104dc906115b4565b80156105275780601f106104fe57610100808354040283529160200191610527565b820191905f5260205f20905b81548152906001019060200180831161050a57829003601f168201915b505050505081525050815260200190600101906103e6565b5050505092508067ffffffffffffffff81111561055e5761055e6115ec565b604051908082528060200260200182016040528015610587578160200160208202803683370190505b5091505f5b818110156105c9575f8181526006602052604090205483518490839081106105b6576105b6611600565b602090810291909101015260010161058c565b50509091565b6002546001600160a01b031633146105fa57604051637bfa4b9f60e01b815260040160405180910390fd5b5f60038054600160a01b900460ff16908111156106195761061961157a565b141580156106455750600160038054600160a01b900460ff16908111156106425761064261157a565b14155b156106635760405163baf3f0f760e01b815260040160405180910390fd5b6003546001600160a01b031661068c5760405163c322e32760e01b815260040160405180910390fd5b6004545f036106ae57604051633edcaad360e11b815260040160405180910390fd5b6003805460ff60a01b1916600160a11b1790556040517fc475c26aa25ed8e85a7faa790e5f63b5d7ee1025f12821f4c9bfddd36ab4d112905f90a1565b6002546001600160a01b0316331461071657604051637bfa4b9f60e01b815260040160405180910390fd5b600260038054600160a01b900460ff16908111156107365761073661157a565b146107545760405163baf3f0f760e01b815260040160405180910390fd5b6003805460ff60a01b1916600360a01b1790556040517fa549b9addfc3693a1863ac5b0b13c42960d78df554c01ea6ac72a7db985df0cf905f90a1565b600481815481106107a0575f80fd5b5f91825260209091206003909102018054600182018054919350906107c4906115b4565b80601f01602080910402602001604051908101604052809291908181526020018280546107f0906115b4565b801561083b5780601f106108125761010080835404028352916020019161083b565b820191905f5260205f20905b81548152906001019060200180831161081e57829003601f168201915b505050505090806002018054610850906115b4565b80601f016020809104026020016040519081016040528092919081815260200182805461087c906115b4565b80156108c75780601f1061089e576101008083540402835291602001916108c7565b820191905f5260205f20905b8154815290600101906020018083116108aa57829003601f168201915b5050505050905083565b5f6060805f5f5f60606108e2610dca565b6108ea610dfb565b604080515f80825260208201909252600f60f81b9b939a50919850469750309650945092509050565b600260038054600160a01b900460ff16908111156109335761093361157a565b146109515760405163baf3f0f760e01b815260040160405180910390fd5b6003546001600160a01b031661097a5760405163c322e32760e01b815260040160405180910390fd5b335f9081526005602052604090205460ff16156109aa57604051637c9a1cf960e01b815260040160405180910390fd5b60045483106109cc576040516352c97e0760e11b815260040160405180910390fd5b604080517f3dafe58bf2a527d776b249a4a23b69d187ff0257a8f9b5faa56036340b83a310602082015233918101919091523060608201525f906080016040516020818303038152906040528051906020012090505f610a2b82610e28565b90505f610a39828686610e5a565b90506001600160a01b0381161580610a5f57506003546001600160a01b03828116911614155b15610a7d57604051630e33ae4160e41b815260040160405180910390fd5b335f818152600560209081526040808320805460ff191660019081179091558a84526006835292819020805490930190925590514281528892917fb4cfecf70861b7b150d8337780d34fb4cbc2114b5fb1fe51a5c5fca1849f7274910160405180910390a3505050505050565b6002546001600160a01b03163314610b1557604051637bfa4b9f60e01b815260040160405180910390fd5b5f60038054600160a01b900460ff1690811115610b3457610b3461157a565b14158015610b605750600160038054600160a01b900460ff1690811115610b5d57610b5d61157a565b14155b15610b7e5760405163baf3f0f760e01b815260040160405180910390fd5b821580610b89575080155b15610ba757604051636963226d60e01b815260040160405180910390fd5b5f60038054600160a01b900460ff1690811115610bc657610bc661157a565b03610c07576003805460ff60a01b1916600160a01b1790556040517f0426b321a943b20e0f1718597ec8225b2004af63f1de22ca0d09689460c28667905f90a15b5f60048054905090506004604051806060016040528083815260200187878080601f0160208091040260200160405190810160405280939291908181526020018383808284375f92019190915250505090825250604080516020601f8801819004810282018101909252868152918101919087908790819084018382808284375f920182905250939094525050835460018181018655948252602091829020845160039092020190815590830151929390929083019150610cc89082611660565b5060408201516002820190610cdd9082611660565b505050807f5ec24fdeacff55432963dbd1c38608a26892abe073580e6e8963924bab42d83b86868686604051610d169493929190611743565b60405180910390a25050505050565b6002546001600160a01b03163314610d5057604051637bfa4b9f60e01b815260040160405180910390fd5b5f60038054600160a01b900460ff1690811115610d6f57610d6f61157a565b14610d8d5760405163baf3f0f760e01b815260040160405180910390fd5b6003805460ff60a01b1916600160a01b1790556040517f0426b321a943b20e0f1718597ec8225b2004af63f1de22ca0d09689460c28667905f90a1565b6060610df67f00000000000000000000000000000000000000000000000000000000000000005f610e84565b905090565b6060610df67f00000000000000000000000000000000000000000000000000000000000000006001610e84565b5f610e54610e34610f2e565b8360405161190160f01b8152600281019290925260228201526042902090565b92915050565b5f5f5f5f610e69878787611057565b925092509250610e79828261109e565b509095945050505050565b606060ff8314610e9e57610e978361115f565b9050610e54565b818054610eaa906115b4565b80601f0160208091040260200160405190810160405280929190818152602001828054610ed6906115b4565b8015610f215780601f10610ef857610100808354040283529160200191610f21565b820191905f5260205f20905b815481529060010190602001808311610f0457829003601f168201915b5050505050905092915050565b5f306001600160a01b037f000000000000000000000000000000000000000000000000000000000000000016148015610f8657507f000000000000000000000000000000000000000000000000000000000000000046145b15610fb057507f000000000000000000000000000000000000000000000000000000000000000090565b610df6604080517f8b73c3c69bb8fe3d512ecc4cf759cc79239f7b179b0ffacaa9a75d522b39400f60208201527f0000000000000000000000000000000000000000000000000000000000000000918101919091527f000000000000000000000000000000000000000000000000000000000000000060608201524660808201523060a08201525f9060c00160405160208183030381529060405280519060200120905090565b5f8080604184900361108b578435602086013560408701355f1a61107d8982858561119c565b955095509550505050611095565b505f915060029050825b93509350939050565b5f8260038111156110b1576110b161157a565b036110ba575050565b60018260038111156110ce576110ce61157a565b036110ec5760405163f645eedf60e01b815260040160405180910390fd5b60028260038111156111005761110061157a565b036111265760405163fce698f760e01b8152600481018290526024015b60405180910390fd5b600382600381111561113a5761113a61157a565b0361115b576040516335e2f38360e21b81526004810182905260240161111d565b5050565b60605f61116b83611264565b6040805160208082528183019092529192505f91906020820181803683375050509182525060208101929092525090565b5f80807f7fffffffffffffffffffffffffffffff5d576e7357a4501ddfe92f46681b20a08411156111d557505f9150600390508261125a565b604080515f808252602082018084528a905260ff891692820192909252606081018790526080810186905260019060a0016020604051602081039080840390855afa158015611226573d5f5f3e3d5ffd5b5050604051601f1901519150506001600160a01b03811661125157505f92506001915082905061125a565b92505f91508190505b9450945094915050565b5f60ff8216601f811115610e5457604051632cd44ac360e21b815260040160405180910390fd5b5f6020828403121561129b575f5ffd5b81356001600160a01b03811681146112b1575f5ffd5b9392505050565b5f81518084528060208401602086015e5f602082860101526020601f19601f83011685010191505092915050565b5f8151808452602084019350602083015f5b828110156113165781518652602095860195909101906001016112f8565b5093949350505050565b5f604082016040835280855180835260608501915060608160051b8601019250602087015f5b828110156113a857605f1987860301845281518051865260208101516060602088015261137660608801826112b8565b905060408201519150868103604088015261139181836112b8565b965050506020938401939190910190600101611346565b5050505082810360208401526113be81856112e6565b95945050505050565b5f602082840312156113d7575f5ffd5b5035919050565b838152606060208201525f6113f660608301856112b8565b828103604084015261140881856112b8565b9695505050505050565b60ff60f81b8816815260e060208201525f61143060e08301896112b8565b828103604084015261144281896112b8565b606084018890526001600160a01b038716608085015260a0840186905283810360c0850152905061147381856112e6565b9a9950505050505050505050565b5f5f83601f840112611491575f5ffd5b50813567ffffffffffffffff8111156114a8575f5ffd5b6020830191508360208285010111156114bf575f5ffd5b9250929050565b5f5f5f604084860312156114d8575f5ffd5b83359250602084013567ffffffffffffffff8111156114f5575f5ffd5b61150186828701611481565b9497909650939450505050565b5f5f5f5f60408587031215611521575f5ffd5b843567ffffffffffffffff811115611537575f5ffd5b61154387828801611481565b909550935050602085013567ffffffffffffffff811115611562575f5ffd5b61156e87828801611481565b95989497509550505050565b634e487b7160e01b5f52602160045260245ffd5b60208101600483106115ae57634e487b7160e01b5f52602160045260245ffd5b91905290565b600181811c908216806115c857607f821691505b6020821081036115e657634e487b7160e01b5f52602260045260245ffd5b50919050565b634e487b7160e01b5f52604160045260245ffd5b634e487b7160e01b5f52603260045260245ffd5b601f82111561165b57805f5260205f20601f840160051c810160208510156116395750805b601f840160051c820191505b81811015611658575f8155600101611645565b50505b505050565b815167ffffffffffffffff81111561167a5761167a6115ec565b61168e8161168884546115b4565b84611614565b6020601f8211600181146116c0575f83156116a95750848201515b5f19600385901b1c1916600184901b178455611658565b5f84815260208120601f198516915b828110156116ef57878501518255602094850194600190920191016116cf565b508482101561170c57868401515f19600387901b60f8161c191681555b50505050600190811b01905550565b81835281816020850137505f828201602090810191909152601f909101601f19169091010190565b604081525f61175660408301868861171b565b828103602084015261176981858761171b565b97965050505050505056fea2646970667358221220772051a9b1b8ca03a74fff4087052061f01e3e321e880bccbc093a6cfecd6bfc64736f6c634300081c0033",
  "linkReferences": {},
  "deployedLinkReferences": {},
  "immutableReferences": {
    "3208": [
      {
        "length": 32,
        "start": 3982
      }
    ],
    "3210": [
      {
        "length": 32,
        "start": 3940
      }
    ],
    "3212": [
      {
        "length": 32,
        "start": 3898
      }
    ],
    "3214": [
      {
        "length": 32,
        "start": 4063
      }
    ],
    "3216": [
      {
        "length": 32,
        "start": 4103
      }
    ],
    "3219": [
      {
        "length": 32,
        "start": 3537
      }
    ],
    "3222": [
      {
        "length": 32,
        "start": 3586
      }
    ]
  },
  "inputSourceName": "project/contracts/Election.sol",
  "buildInfoId": "solc-0_8_28-3f9d1b2aa67c99eebc12f0894b5c0ac4b44a4166"
}